{
  "contractName": "QRCode",
  "abi": [
    {
      "inputs": [
        {
          "internalType": "uint256",
          "name": "",
          "type": "uint256"
        }
      ],
      "name": "products",
      "outputs": [
        {
          "internalType": "uint256",
          "name": "id",
          "type": "uint256"
        },
        {
          "internalType": "string",
          "name": "name",
          "type": "string"
        },
        {
          "internalType": "uint256",
          "name": "price",
          "type": "uint256"
        },
        {
          "internalType": "string",
          "name": "specifications",
          "type": "string"
        }
      ],
      "stateMutability": "view",
      "type": "function"
    },
    {
      "inputs": [
        {
          "internalType": "uint256",
          "name": "_id",
          "type": "uint256"
        },
        {
          "internalType": "string",
          "name": "_name",
          "type": "string"
        },
        {
          "internalType": "uint256",
          "name": "_price",
          "type": "uint256"
        },
        {
          "internalType": "string",
          "name": "_specifications",
          "type": "string"
        }
      ],
      "name": "generateQRCode",
      "outputs": [],
      "stateMutability": "nonpayable",
      "type": "function"
    }
  ],
  "bytecode": "0x608060405234801561000f575f80fd5b506108568061001d5f395ff3fe608060405234801561000f575f80fd5b5060043610610034575f3560e01c80631834399b146100385780637acc0b2014610054575b5f80fd5b610052600480360381019061004d91906103b6565b610087565b005b61006e60048036038101906100699190610452565b6100ff565b60405161007e9493929190610506565b60405180910390f35b6040518060800160405280858152602001848152602001838152602001828152505f808681526020019081526020015f205f820151815f015560208201518160010190816100d59190610751565b506040820151816002015560608201518160030190816100f59190610751565b5090505050505050565b5f602052805f5260405f205f91509050805f01549080600101805461012390610584565b80601f016020809104026020016040519081016040528092919081815260200182805461014f90610584565b801561019a5780601f106101715761010080835404028352916020019161019a565b820191905f5260205f20905b81548152906001019060200180831161017d57829003601f168201915b5050505050908060020154908060030180546101b590610584565b80601f01602080910402602001604051908101604052809291908181526020018280546101e190610584565b801561022c5780601f106102035761010080835404028352916020019161022c565b820191905f5260205f20905b81548152906001019060200180831161020f57829003601f168201915b5050505050905084565b5f604051905090565b5f80fd5b5f80fd5b5f819050919050565b61025981610247565b8114610263575f80fd5b50565b5f8135905061027481610250565b92915050565b5f80fd5b5f80fd5b5f601f19601f8301169050919050565b7f4e487b71000000000000000000000000000000000000000000000000000000005f52604160045260245ffd5b6102c882610282565b810181811067ffffffffffffffff821117156102e7576102e6610292565b5b80604052505050565b5f6102f9610236565b905061030582826102bf565b919050565b5f67ffffffffffffffff82111561032457610323610292565b5b61032d82610282565b9050602081019050919050565b828183375f83830152505050565b5f61035a6103558461030a565b6102f0565b9050828152602081018484840111156103765761037561027e565b5b61038184828561033a565b509392505050565b5f82601f83011261039d5761039c61027a565b5b81356103ad848260208601610348565b91505092915050565b5f805f80608085870312156103ce576103cd61023f565b5b5f6103db87828801610266565b945050602085013567ffffffffffffffff8111156103fc576103fb610243565b5b61040887828801610389565b935050604061041987828801610266565b925050606085013567ffffffffffffffff81111561043a57610439610243565b5b61044687828801610389565b91505092959194509250565b5f602082840312156104675761046661023f565b5b5f61047484828501610266565b91505092915050565b61048681610247565b82525050565b5f81519050919050565b5f82825260208201905092915050565b5f5b838110156104c35780820151818401526020810190506104a8565b5f8484015250505050565b5f6104d88261048c565b6104e28185610496565b93506104f28185602086016104a6565b6104fb81610282565b840191505092915050565b5f6080820190506105195f83018761047d565b818103602083015261052b81866104ce565b905061053a604083018561047d565b818103606083015261054c81846104ce565b905095945050505050565b7f4e487b71000000000000000000000000000000000000000000000000000000005f52602260045260245ffd5b5f600282049050600182168061059b57607f821691505b6020821081036105ae576105ad610557565b5b50919050565b5f819050815f5260205f209050919050565b5f6020601f8301049050919050565b5f82821b905092915050565b5f600883026106107fffffffffffffffffffffffffffffffffffffffffffffffffffffffffffffffff826105d5565b61061a86836105d5565b95508019841693508086168417925050509392505050565b5f819050919050565b5f61065561065061064b84610247565b610632565b610247565b9050919050565b5f819050919050565b61066e8361063b565b61068261067a8261065c565b8484546105e1565b825550505050565b5f90565b61069661068a565b6106a1818484610665565b505050565b5b818110156106c4576106b95f8261068e565b6001810190506106a7565b5050565b601f821115610709576106da816105b4565b6106e3846105c6565b810160208510156106f2578190505b6107066106fe856105c6565b8301826106a6565b50505b505050565b5f82821c905092915050565b5f6107295f198460080261070e565b1980831691505092915050565b5f610741838361071a565b9150826002028217905092915050565b61075a8261048c565b67ffffffffffffffff81111561077357610772610292565b5b61077d8254610584565b6107888282856106c8565b5f60209050601f8311600181146107b9575f84156107a7578287015190505b6107b18582610736565b865550610818565b601f1984166107c7866105b4565b5f5b828110156107ee578489015182556001820191506020850194506020810190506107c9565b8683101561080b5784890151610807601f89168261071a565b8355505b6001600288020188555050505b50505050505056fea2646970667358221220ed5adf073c6a03bc01251e04f58746bdc603948f21477aaa0db904fd8f2df69664736f6c63430008140033",
  "immutableReferences": {},
  "source": "// SPDX-License-Identifier: MIT\npragma solidity ^0.8.0;\n\ncontract QRCode {\n    struct Product {\n    uint256 id;\n    string name;\n    uint256 price;\n    string specifications;\n    }\n    \n    mapping(uint256 => Product) public products;\n    \n    function generateQRCode(uint256 _id, string memory _name, uint256 _price, string memory _specifications) public {\n        products[_id] = Product(_id, _name, _price, _specifications);\n    }\n}\n",
  "sourcePath": "C:\\Users\\suhru\\QR_Project\\contracts\\QRCode.sol",
  "compiler": {
    "name": "solc",
    "version": "0.8.20+commit.a1b79de6.Emscripten.clang"
  },
  "schemaVersion": "3.4.14",
  "updatedAt": "2023-06-21T15:40:58.375Z",
  "devdoc": {
    "kind": "dev",
    "methods": {},
    "version": 1
  },
  "userdoc": {
    "kind": "user",
    "methods": {},
    "version": 1
  }
}